t=2023-12-04T10:52:33+0600 lvl=info msg=Configured api=signer "audit log"=audit.log
t=2023-12-04T10:53:27+0600 lvl=info msg=Version    api=signer type=request metadata="{\"remote\":\"NA\",\"local\":\"NA\",\"scheme\":\"ipc\",\"User-Agent\":\"\",\"Origin\":\"\"}"
t=2023-12-04T10:53:27+0600 lvl=info msg=Version    api=signer type=response data=6.1.0 error=nil
t=2023-12-04T10:54:16+0600 lvl=info msg=List       api=signer type=request  metadata="{\"remote\":\"NA\",\"local\":\"NA\",\"scheme\":\"ipc\",\"User-Agent\":\"\",\"Origin\":\"\"}"
t=2023-12-04T10:54:29+0600 lvl=info msg=List       api=signer type=response data=[0x1585917171590cA54D324D047c7B9c5ac6a6a589]
t=2023-12-04T10:54:29+0600 lvl=info msg=SignTransaction api=signer type=request  metadata="{\"remote\":\"NA\",\"local\":\"NA\",\"scheme\":\"ipc\",\"User-Agent\":\"\",\"Origin\":\"\"}" tx="{\"from\":\"0x1585917171590cA54D324D047c7B9c5ac6a6a589\",\"to\":\"0x528EA91FA33F1C194E176929F22Adda8e4687d82\",\"gas\":\"0x5208\",\"gasPrice\":null,\"maxFeePerGas\":\"0xb2d05e00\",\"maxPriorityFeePerGas\":\"0x3b9aca00\",\"value\":\"0x4563918244f40000\",\"nonce\":\"0x5\",\"data\":\"0x\",\"accessList\":[],\"chainId\":\"0x3039\"}" methodSelector=<nil>
t=2023-12-04T10:54:33+0600 lvl=info msg=SignTransaction api=signer type=response data=<nil> error="could not decrypt key with given password"
t=2023-12-04T10:58:47+0600 lvl=info msg=Configured api=signer "audit log"=audit.log
t=2023-12-04T11:02:00+0600 lvl=info msg=Version    api=signer type=request metadata="{\"remote\":\"NA\",\"local\":\"NA\",\"scheme\":\"ipc\",\"User-Agent\":\"\",\"Origin\":\"\"}"
t=2023-12-04T11:02:00+0600 lvl=info msg=Version    api=signer type=response data=6.1.0 error=nil
t=2023-12-04T11:02:06+0600 lvl=info msg=List       api=signer type=request  metadata="{\"remote\":\"NA\",\"local\":\"NA\",\"scheme\":\"ipc\",\"User-Agent\":\"\",\"Origin\":\"\"}"
t=2023-12-04T11:02:15+0600 lvl=info msg=List       api=signer type=response data=[0x1585917171590cA54D324D047c7B9c5ac6a6a589]
t=2023-12-04T11:02:33+0600 lvl=info msg=List       api=signer type=request  metadata="{\"remote\":\"NA\",\"local\":\"NA\",\"scheme\":\"ipc\",\"User-Agent\":\"\",\"Origin\":\"\"}"
t=2023-12-04T11:02:37+0600 lvl=info msg=List       api=signer type=response data=[0x1585917171590cA54D324D047c7B9c5ac6a6a589]
t=2023-12-04T11:02:37+0600 lvl=info msg=SignTransaction api=signer type=request  metadata="{\"remote\":\"NA\",\"local\":\"NA\",\"scheme\":\"ipc\",\"User-Agent\":\"\",\"Origin\":\"\"}" tx="{\"from\":\"0x1585917171590cA54D324D047c7B9c5ac6a6a589\",\"to\":\"0x528EA91FA33F1C194E176929F22Adda8e4687d82\",\"gas\":\"0x5208\",\"gasPrice\":null,\"maxFeePerGas\":\"0xb2d05e00\",\"maxPriorityFeePerGas\":\"0x3b9aca00\",\"value\":\"0x4563918244f40000\",\"nonce\":\"0x5\",\"data\":\"0x\",\"accessList\":[],\"chainId\":\"0x3039\"}" methodSelector=<nil>
t=2023-12-04T11:02:39+0600 lvl=info msg=SignTransaction api=signer type=response data=<nil> error="could not decrypt key with given password"
t=2023-12-04T11:03:16+0600 lvl=info msg=Version         api=signer type=request  metadata="{\"remote\":\"NA\",\"local\":\"NA\",\"scheme\":\"ipc\",\"User-Agent\":\"\",\"Origin\":\"\"}"
t=2023-12-04T11:03:16+0600 lvl=info msg=Version         api=signer type=response data=6.1.0 error=nil
t=2023-12-04T11:03:25+0600 lvl=info msg=List            api=signer type=request  metadata="{\"remote\":\"NA\",\"local\":\"NA\",\"scheme\":\"ipc\",\"User-Agent\":\"\",\"Origin\":\"\"}"
t=2023-12-04T11:03:28+0600 lvl=info msg=List            api=signer type=response data=[0x1585917171590cA54D324D047c7B9c5ac6a6a589]
t=2023-12-04T11:03:42+0600 lvl=info msg=List            api=signer type=request  metadata="{\"remote\":\"NA\",\"local\":\"NA\",\"scheme\":\"ipc\",\"User-Agent\":\"\",\"Origin\":\"\"}"
t=2023-12-04T11:03:47+0600 lvl=info msg=List            api=signer type=response data=[0x1585917171590cA54D324D047c7B9c5ac6a6a589]
t=2023-12-04T11:03:47+0600 lvl=info msg=SignTransaction api=signer type=request  metadata="{\"remote\":\"NA\",\"local\":\"NA\",\"scheme\":\"ipc\",\"User-Agent\":\"\",\"Origin\":\"\"}" tx="{\"from\":\"0x1585917171590cA54D324D047c7B9c5ac6a6a589\",\"to\":\"0x528EA91FA33F1C194E176929F22Adda8e4687d82\",\"gas\":\"0x5208\",\"gasPrice\":null,\"maxFeePerGas\":\"0xb2d05e00\",\"maxPriorityFeePerGas\":\"0x3b9aca00\",\"value\":\"0x4563918244f40000\",\"nonce\":\"0x5\",\"data\":\"0x\",\"accessList\":[],\"chainId\":\"0x3039\"}" methodSelector=<nil>
t=2023-12-04T11:03:52+0600 lvl=info msg=SignTransaction api=signer type=response data=<nil> error="could not decrypt key with given password"
t=2023-12-04T11:06:25+0600 lvl=info msg=Configured api=signer "audit log"=audit.log
t=2023-12-04T11:07:05+0600 lvl=info msg=Version    api=signer type=request metadata="{\"remote\":\"NA\",\"local\":\"NA\",\"scheme\":\"ipc\",\"User-Agent\":\"\",\"Origin\":\"\"}"
t=2023-12-04T11:07:05+0600 lvl=info msg=Version    api=signer type=response data=6.1.0 error=nil
t=2023-12-04T11:07:12+0600 lvl=info msg=List       api=signer type=request  metadata="{\"remote\":\"NA\",\"local\":\"NA\",\"scheme\":\"ipc\",\"User-Agent\":\"\",\"Origin\":\"\"}"
t=2023-12-04T11:07:15+0600 lvl=info msg=List       api=signer type=response data=[0x1585917171590cA54D324D047c7B9c5ac6a6a589]
t=2023-12-04T11:07:38+0600 lvl=info msg=List       api=signer type=request  metadata="{\"remote\":\"NA\",\"local\":\"NA\",\"scheme\":\"ipc\",\"User-Agent\":\"\",\"Origin\":\"\"}"
t=2023-12-04T11:07:47+0600 lvl=info msg=List       api=signer type=response data=[0x1585917171590cA54D324D047c7B9c5ac6a6a589]
t=2023-12-04T11:07:47+0600 lvl=info msg=SignTransaction api=signer type=request  metadata="{\"remote\":\"NA\",\"local\":\"NA\",\"scheme\":\"ipc\",\"User-Agent\":\"\",\"Origin\":\"\"}" tx="{\"from\":\"0x1585917171590cA54D324D047c7B9c5ac6a6a589\",\"to\":\"0x528EA91FA33F1C194E176929F22Adda8e4687d82\",\"gas\":\"0x5208\",\"gasPrice\":null,\"maxFeePerGas\":\"0xb2d05e00\",\"maxPriorityFeePerGas\":\"0x3b9aca00\",\"value\":\"0x4563918244f40000\",\"nonce\":\"0x5\",\"data\":\"0x\",\"accessList\":[],\"chainId\":\"0x3039\"}" methodSelector=<nil>
t=2023-12-04T11:07:49+0600 lvl=info msg=SignTransaction api=signer type=response data=<nil> error="could not decrypt key with given password"
t=2023-12-04T16:03:24+0600 lvl=info msg=Configured api=signer "audit log"=audit.log
t=2023-12-04T16:03:55+0600 lvl=info msg=Version    api=signer type=request metadata="{\"remote\":\"NA\",\"local\":\"NA\",\"scheme\":\"ipc\",\"User-Agent\":\"\",\"Origin\":\"\"}"
t=2023-12-04T16:03:55+0600 lvl=info msg=Version    api=signer type=response data=6.1.0 error=nil
t=2023-12-04T16:04:05+0600 lvl=info msg=List       api=signer type=request  metadata="{\"remote\":\"NA\",\"local\":\"NA\",\"scheme\":\"ipc\",\"User-Agent\":\"\",\"Origin\":\"\"}"
t=2023-12-04T16:04:09+0600 lvl=info msg=List       api=signer type=response data=[0x08A427De46773b907a9C406F81948Aa22D2D3260]
t=2023-12-04T16:05:04+0600 lvl=info msg=SignTransaction api=signer type=request  metadata="{\"remote\":\"NA\",\"local\":\"NA\",\"scheme\":\"ipc\",\"User-Agent\":\"\",\"Origin\":\"\"}" tx="{\"from\":\"0x08A427De46773b907a9C406F81948Aa22D2D3260\",\"to\":\"0x528EA91FA33F1C194E176929F22Adda8e4687d82\",\"gas\":\"0x5208\",\"gasPrice\":null,\"maxFeePerGas\":\"0xa3e9ab80\",\"maxPriorityFeePerGas\":\"0x3b9aca00\",\"value\":\"0x27716b6a0adc2d677c080000000\",\"nonce\":\"0x2\",\"data\":\"0x\",\"accessList\":[],\"chainId\":\"0x75bc371\"}" methodSelector=<nil>
t=2023-12-04T16:05:09+0600 lvl=info msg=SignTransaction api=signer type=response data=<nil> error="could not decrypt key with given password"
t=2023-12-04T16:07:57+0600 lvl=info msg=Version         api=signer type=request  metadata="{\"remote\":\"NA\",\"local\":\"NA\",\"scheme\":\"ipc\",\"User-Agent\":\"\",\"Origin\":\"\"}"
t=2023-12-04T16:07:57+0600 lvl=info msg=Version         api=signer type=response data=6.1.0 error=nil
t=2023-12-04T16:08:07+0600 lvl=info msg=List            api=signer type=request  metadata="{\"remote\":\"NA\",\"local\":\"NA\",\"scheme\":\"ipc\",\"User-Agent\":\"\",\"Origin\":\"\"}"
t=2023-12-04T16:08:12+0600 lvl=info msg=List            api=signer type=response data=[0x08A427De46773b907a9C406F81948Aa22D2D3260]
t=2023-12-04T16:09:43+0600 lvl=info msg=SignTransaction api=signer type=request  metadata="{\"remote\":\"NA\",\"local\":\"NA\",\"scheme\":\"ipc\",\"User-Agent\":\"\",\"Origin\":\"\"}" tx="{\"from\":\"0x08A427De46773b907a9C406F81948Aa22D2D3260\",\"to\":\"0x528EA91FA33F1C194E176929F22Adda8e4687d82\",\"gas\":\"0x5208\",\"gasPrice\":null,\"maxFeePerGas\":\"0xa3e9ab80\",\"maxPriorityFeePerGas\":\"0x3b9aca00\",\"value\":\"0x27716b6a0adc2d677c080000000\",\"nonce\":\"0x2\",\"data\":\"0x\",\"accessList\":[],\"chainId\":\"0x75bc371\"}" methodSelector=<nil>
t=2023-12-04T16:09:47+0600 lvl=info msg=SignTransaction api=signer type=response data=<nil> error="could not decrypt key with given password"
t=2023-12-04T16:12:56+0600 lvl=info msg=Version         api=signer type=request  metadata="{\"remote\":\"NA\",\"local\":\"NA\",\"scheme\":\"ipc\",\"User-Agent\":\"\",\"Origin\":\"\"}"
t=2023-12-04T16:12:56+0600 lvl=info msg=Version         api=signer type=response data=6.1.0 error=nil
t=2023-12-04T16:16:43+0600 lvl=info msg=Version         api=signer type=request  metadata="{\"remote\":\"NA\",\"local\":\"NA\",\"scheme\":\"ipc\",\"User-Agent\":\"\",\"Origin\":\"\"}"
t=2023-12-04T16:16:43+0600 lvl=info msg=Version         api=signer type=response data=6.1.0 error=nil
t=2023-12-04T16:16:43+0600 lvl=info msg=List            api=signer type=request  metadata="{\"remote\":\"NA\",\"local\":\"NA\",\"scheme\":\"ipc\",\"User-Agent\":\"\",\"Origin\":\"\"}"
t=2023-12-04T16:16:43+0600 lvl=info msg=List            api=signer type=response data=[]
t=2023-12-04T16:17:13+0600 lvl=info msg=Configured api=signer "audit log"=audit.log
t=2023-12-04T16:17:26+0600 lvl=info msg=Version    api=signer type=request metadata="{\"remote\":\"NA\",\"local\":\"NA\",\"scheme\":\"ipc\",\"User-Agent\":\"\",\"Origin\":\"\"}"
t=2023-12-04T16:17:26+0600 lvl=info msg=Version    api=signer type=response data=6.1.0 error=nil
t=2023-12-04T16:17:26+0600 lvl=info msg=List       api=signer type=request  metadata="{\"remote\":\"NA\",\"local\":\"NA\",\"scheme\":\"ipc\",\"User-Agent\":\"\",\"Origin\":\"\"}"
t=2023-12-04T16:17:46+0600 lvl=info msg=List       api=signer type=response data=[0x08A427De46773b907a9C406F81948Aa22D2D3260]
t=2023-12-04T16:18:13+0600 lvl=info msg=SignTransaction api=signer type=request  metadata="{\"remote\":\"NA\",\"local\":\"NA\",\"scheme\":\"ipc\",\"User-Agent\":\"\",\"Origin\":\"\"}" tx="{\"from\":\"0x08A427De46773b907a9C406F81948Aa22D2D3260\",\"to\":\"0x528EA91FA33F1C194E176929F22Adda8e4687d82\",\"gas\":\"0x5208\",\"gasPrice\":null,\"maxFeePerGas\":\"0xa3e9ab80\",\"maxPriorityFeePerGas\":\"0x3b9aca00\",\"value\":\"0x27716b6a0adc2d677c080000000\",\"nonce\":\"0x2\",\"data\":\"0x\",\"accessList\":[],\"chainId\":\"0x75bc371\"}" methodSelector=<nil>
t=2023-12-04T16:18:28+0600 lvl=info msg=SignTransaction api=signer type=response data=02f87c84075bc37102843b9aca0084a3e9ab8082520894528ea91fa33f1c194e176929f22adda8e4687d828e027716b6a0adc2d677c08000000080c080a048583c9a65570785852aaaec2966816e0232ccfae390ed44cdadad9c4ef43583a057a40d1708421e1880dd6584b444fad7765b51dd71cc30a085fffe7636c58072 error=nil
t=2023-12-04T16:19:00+0600 lvl=info msg=List            api=signer type=request  metadata="{\"remote\":\"NA\",\"local\":\"NA\",\"scheme\":\"ipc\",\"User-Agent\":\"\",\"Origin\":\"\"}"
t=2023-12-04T16:19:04+0600 lvl=info msg=List            api=signer type=response data=[0x08A427De46773b907a9C406F81948Aa22D2D3260]
t=2023-12-04T16:21:11+0600 lvl=info msg=Version         api=signer type=request  metadata="{\"remote\":\"NA\",\"local\":\"NA\",\"scheme\":\"ipc\",\"User-Agent\":\"\",\"Origin\":\"\"}"
t=2023-12-04T16:21:11+0600 lvl=info msg=Version         api=signer type=response data=6.1.0 error=nil
t=2023-12-04T16:21:11+0600 lvl=info msg=List            api=signer type=request  metadata="{\"remote\":\"NA\",\"local\":\"NA\",\"scheme\":\"ipc\",\"User-Agent\":\"\",\"Origin\":\"\"}"
t=2023-12-04T16:21:17+0600 lvl=info msg=List            api=signer type=response data=[0x08A427De46773b907a9C406F81948Aa22D2D3260]
t=2023-12-04T16:21:29+0600 lvl=info msg=List            api=signer type=request  metadata="{\"remote\":\"NA\",\"local\":\"NA\",\"scheme\":\"ipc\",\"User-Agent\":\"\",\"Origin\":\"\"}"
t=2023-12-04T16:21:33+0600 lvl=info msg=List            api=signer type=response data=[0x08A427De46773b907a9C406F81948Aa22D2D3260]
t=2023-12-04T16:24:07+0600 lvl=info msg=SignTransaction api=signer type=request  metadata="{\"remote\":\"NA\",\"local\":\"NA\",\"scheme\":\"ipc\",\"User-Agent\":\"\",\"Origin\":\"\"}" tx="{\"from\":\"0x08A427De46773b907a9C406F81948Aa22D2D3260\",\"to\":\"0x528EA91FA33F1C194E176929F22Adda8e4687d82\",\"gas\":\"0x5208\",\"gasPrice\":null,\"maxFeePerGas\":\"0xa3e9ab80\",\"maxPriorityFeePerGas\":\"0x3b9aca00\",\"value\":\"0x27716b6a0adc2d677c080000000\",\"nonce\":\"0x3\",\"data\":\"0x\",\"accessList\":[],\"chainId\":\"0x75bc371\"}" methodSelector=<nil>
t=2023-12-04T16:24:18+0600 lvl=info msg=SignTransaction api=signer type=response data=<nil> error="could not decrypt key with given password"
t=2023-12-04T16:24:26+0600 lvl=info msg=SignTransaction api=signer type=request  metadata="{\"remote\":\"NA\",\"local\":\"NA\",\"scheme\":\"ipc\",\"User-Agent\":\"\",\"Origin\":\"\"}" tx="{\"from\":\"0x08A427De46773b907a9C406F81948Aa22D2D3260\",\"to\":\"0x528EA91FA33F1C194E176929F22Adda8e4687d82\",\"gas\":\"0x5208\",\"gasPrice\":null,\"maxFeePerGas\":\"0xa3e9ab80\",\"maxPriorityFeePerGas\":\"0x3b9aca00\",\"value\":\"0x27716b6a0adc2d677c080000000\",\"nonce\":\"0x3\",\"data\":\"0x\",\"accessList\":[],\"chainId\":\"0x75bc371\"}" methodSelector=<nil>
t=2023-12-04T16:24:37+0600 lvl=info msg=SignTransaction api=signer type=response data=02f87c84075bc37103843b9aca0084a3e9ab8082520894528ea91fa33f1c194e176929f22adda8e4687d828e027716b6a0adc2d677c08000000080c001a040957ec7c61a2a4fe6251af604534b1793e4f7680cc9bb810c7188f74d4ed627a07f7848224bbc92cda04da483098bbcd6b3142e66f2d50e3e2d8d80efeddf3a37 error=nil
t=2023-12-04T16:28:20+0600 lvl=info msg=Configured api=signer "audit log"=audit.log
t=2023-12-04T16:28:31+0600 lvl=info msg=SignTransaction api=signer type=request  metadata="{\"remote\":\"NA\",\"local\":\"NA\",\"scheme\":\"ipc\",\"User-Agent\":\"\",\"Origin\":\"\"}" tx="{\"from\":\"0x08A427De46773b907a9C406F81948Aa22D2D3260\",\"to\":\"0x528EA91FA33F1C194E176929F22Adda8e4687d82\",\"gas\":\"0x5208\",\"gasPrice\":null,\"maxFeePerGas\":\"0xa3e9ab80\",\"maxPriorityFeePerGas\":\"0x3b9aca00\",\"value\":\"0x27716b6a0adc2d677c080000000\",\"nonce\":\"0x4\",\"data\":\"0x\",\"accessList\":[],\"chainId\":\"0x75bc371\"}" methodSelector=<nil>
t=2023-12-04T16:28:38+0600 lvl=info msg=SignTransaction api=signer type=response data=02f87c84075bc37104843b9aca0084a3e9ab8082520894528ea91fa33f1c194e176929f22adda8e4687d828e027716b6a0adc2d677c08000000080c001a09d1538ba851de9a1e7500eaf3e31edaf4591647bc90e6ed42a2b13f63636ce90a06fbf3f785715dcf0bd2c101c630bbe4266903895c4a9605fbc867f708fb43107 error=nil
t=2023-12-04T16:30:32+0600 lvl=info msg=Configured api=signer "audit log"=audit.log
t=2023-12-04T16:30:51+0600 lvl=info msg=Configured api=signer "audit log"=audit.log
t=2023-12-04T16:32:10+0600 lvl=info msg=Configured api=signer "audit log"=audit.log
t=2023-12-04T16:32:25+0600 lvl=info msg=List            api=signer type=request  metadata="{\"remote\":\"NA\",\"local\":\"NA\",\"scheme\":\"ipc\",\"User-Agent\":\"\",\"Origin\":\"\"}"
t=2023-12-04T16:32:30+0600 lvl=info msg=List            api=signer type=response data=[0x08A427De46773b907a9C406F81948Aa22D2D3260]
t=2023-12-04T16:33:16+0600 lvl=info msg=SignTransaction api=signer type=request  metadata="{\"remote\":\"NA\",\"local\":\"NA\",\"scheme\":\"ipc\",\"User-Agent\":\"\",\"Origin\":\"\"}" tx="{\"from\":\"0x08A427De46773b907a9C406F81948Aa22D2D3260\",\"to\":\"0x528EA91FA33F1C194E176929F22Adda8e4687d82\",\"gas\":\"0x5208\",\"gasPrice\":null,\"maxFeePerGas\":\"0xa3e9ab80\",\"maxPriorityFeePerGas\":\"0x3b9aca00\",\"value\":\"0x3f1bdf10116048a59340000000\",\"nonce\":\"0x5\",\"data\":\"0x\",\"accessList\":[],\"chainId\":\"0x75bc371\"}" methodSelector=<nil>
t=2023-12-04T16:33:28+0600 lvl=info msg=SignTransaction api=signer type=response data=02f87b84075bc37105843b9aca0084a3e9ab8082520894528ea91fa33f1c194e176929f22adda8e4687d828d3f1bdf10116048a5934000000080c080a04786f411af0c39842df71b9434c6d6f3291b4984f2add2c5f996f6b12a0a8b33a01c9e9c1218e7942f55abe3ca1246a73e37504cdca2e61f7067c8a92950f13dca error=nil
t=2023-12-04T16:39:34+0600 lvl=info msg=List            api=signer type=request  metadata="{\"remote\":\"NA\",\"local\":\"NA\",\"scheme\":\"ipc\",\"User-Agent\":\"\",\"Origin\":\"\"}"
t=2023-12-04T16:39:39+0600 lvl=info msg=List            api=signer type=response data=[0x08A427De46773b907a9C406F81948Aa22D2D3260]
t=2023-12-04T16:55:54+0600 lvl=info msg=Version    api=signer type=request metadata="{\"remote\":\"NA\",\"local\":\"NA\",\"scheme\":\"ipc\",\"User-Agent\":\"\",\"Origin\":\"\"}"
t=2023-12-04T16:55:54+0600 lvl=info msg=Version    api=signer type=response data=6.1.0 error=nil
t=2023-12-04T16:55:55+0600 lvl=info msg=List       api=signer type=request  metadata="{\"remote\":\"NA\",\"local\":\"NA\",\"scheme\":\"ipc\",\"User-Agent\":\"\",\"Origin\":\"\"}"
t=2023-12-04T16:56:11+0600 lvl=info msg=List       api=signer type=response data=[0x2ee97631432aD774AAC16f73AC6892fae6D817db]
t=2023-12-04T16:56:35+0600 lvl=info msg=Version    api=signer type=request  metadata="{\"remote\":\"NA\",\"local\":\"NA\",\"scheme\":\"ipc\",\"User-Agent\":\"\",\"Origin\":\"\"}"
t=2023-12-04T16:56:35+0600 lvl=info msg=Version    api=signer type=response data=6.1.0 error=nil
t=2023-12-04T16:56:36+0600 lvl=info msg=List       api=signer type=request  metadata="{\"remote\":\"NA\",\"local\":\"NA\",\"scheme\":\"ipc\",\"User-Agent\":\"\",\"Origin\":\"\"}"
t=2023-12-04T16:56:50+0600 lvl=info msg=List       api=signer type=response data=[0x2ee97631432aD774AAC16f73AC6892fae6D817db]
t=2023-12-04T17:15:29+0600 lvl=info msg=Version    api=signer type=request  metadata="{\"remote\":\"NA\",\"local\":\"NA\",\"scheme\":\"ipc\",\"User-Agent\":\"\",\"Origin\":\"\"}"
t=2023-12-04T17:15:29+0600 lvl=info msg=Version    api=signer type=response data=6.1.0 error=nil
t=2023-12-04T17:15:29+0600 lvl=info msg=List       api=signer type=request  metadata="{\"remote\":\"NA\",\"local\":\"NA\",\"scheme\":\"ipc\",\"User-Agent\":\"\",\"Origin\":\"\"}"
t=2023-12-04T17:15:36+0600 lvl=info msg=List       api=signer type=response data=[0x2ee97631432aD774AAC16f73AC6892fae6D817db]
